{
  "_format": "hh-sol-artifact-1",
  "contractName": "NFTMarketplace",
  "sourceName": "contracts/NftMarketPlace.sol",
  "abi": [
    {
      "inputs": [],
      "stateMutability": "nonpayable",
      "type": "constructor"
    },
    {
      "inputs": [
        {
          "internalType": "address",
          "name": "sender",
          "type": "address"
        },
        {
          "internalType": "uint256",
          "name": "tokenId",
          "type": "uint256"
        },
        {
          "internalType": "address",
          "name": "owner",
          "type": "address"
        }
      ],
      "name": "ERC721IncorrectOwner",
      "type": "error"
    },
    {
      "inputs": [
        {
          "internalType": "address",
          "name": "operator",
          "type": "address"
        },
        {
          "internalType": "uint256",
          "name": "tokenId",
          "type": "uint256"
        }
      ],
      "name": "ERC721InsufficientApproval",
      "type": "error"
    },
    {
      "inputs": [
        {
          "internalType": "address",
          "name": "approver",
          "type": "address"
        }
      ],
      "name": "ERC721InvalidApprover",
      "type": "error"
    },
    {
      "inputs": [
        {
          "internalType": "address",
          "name": "operator",
          "type": "address"
        }
      ],
      "name": "ERC721InvalidOperator",
      "type": "error"
    },
    {
      "inputs": [
        {
          "internalType": "address",
          "name": "owner",
          "type": "address"
        }
      ],
      "name": "ERC721InvalidOwner",
      "type": "error"
    },
    {
      "inputs": [
        {
          "internalType": "address",
          "name": "receiver",
          "type": "address"
        }
      ],
      "name": "ERC721InvalidReceiver",
      "type": "error"
    },
    {
      "inputs": [
        {
          "internalType": "address",
          "name": "sender",
          "type": "address"
        }
      ],
      "name": "ERC721InvalidSender",
      "type": "error"
    },
    {
      "inputs": [
        {
          "internalType": "uint256",
          "name": "tokenId",
          "type": "uint256"
        }
      ],
      "name": "ERC721NonexistentToken",
      "type": "error"
    },
    {
      "anonymous": false,
      "inputs": [
        {
          "indexed": true,
          "internalType": "address",
          "name": "owner",
          "type": "address"
        },
        {
          "indexed": true,
          "internalType": "address",
          "name": "approved",
          "type": "address"
        },
        {
          "indexed": true,
          "internalType": "uint256",
          "name": "tokenId",
          "type": "uint256"
        }
      ],
      "name": "Approval",
      "type": "event"
    },
    {
      "anonymous": false,
      "inputs": [
        {
          "indexed": true,
          "internalType": "address",
          "name": "owner",
          "type": "address"
        },
        {
          "indexed": true,
          "internalType": "address",
          "name": "operator",
          "type": "address"
        },
        {
          "indexed": false,
          "internalType": "bool",
          "name": "approved",
          "type": "bool"
        }
      ],
      "name": "ApprovalForAll",
      "type": "event"
    },
    {
      "anonymous": false,
      "inputs": [
        {
          "indexed": true,
          "internalType": "address",
          "name": "from",
          "type": "address"
        },
        {
          "indexed": true,
          "internalType": "address",
          "name": "to",
          "type": "address"
        },
        {
          "indexed": true,
          "internalType": "uint256",
          "name": "tokenId",
          "type": "uint256"
        }
      ],
      "name": "Transfer",
      "type": "event"
    },
    {
      "inputs": [
        {
          "internalType": "address",
          "name": "to",
          "type": "address"
        },
        {
          "internalType": "uint256",
          "name": "tokenId",
          "type": "uint256"
        }
      ],
      "name": "approve",
      "outputs": [],
      "stateMutability": "nonpayable",
      "type": "function"
    },
    {
      "inputs": [
        {
          "internalType": "address",
          "name": "owner",
          "type": "address"
        }
      ],
      "name": "balanceOf",
      "outputs": [
        {
          "internalType": "uint256",
          "name": "",
          "type": "uint256"
        }
      ],
      "stateMutability": "view",
      "type": "function"
    },
    {
      "inputs": [
        {
          "internalType": "uint256",
          "name": "tokenId",
          "type": "uint256"
        }
      ],
      "name": "buy",
      "outputs": [],
      "stateMutability": "payable",
      "type": "function"
    },
    {
      "inputs": [
        {
          "internalType": "uint256",
          "name": "tokenId",
          "type": "uint256"
        }
      ],
      "name": "getApproved",
      "outputs": [
        {
          "internalType": "address",
          "name": "",
          "type": "address"
        }
      ],
      "stateMutability": "view",
      "type": "function"
    },
    {
      "inputs": [
        {
          "internalType": "address",
          "name": "owner",
          "type": "address"
        },
        {
          "internalType": "address",
          "name": "operator",
          "type": "address"
        }
      ],
      "name": "isApprovedForAll",
      "outputs": [
        {
          "internalType": "bool",
          "name": "",
          "type": "bool"
        }
      ],
      "stateMutability": "view",
      "type": "function"
    },
    {
      "inputs": [
        {
          "internalType": "uint256",
          "name": "tokenId",
          "type": "uint256"
        },
        {
          "internalType": "uint256",
          "name": "price",
          "type": "uint256"
        }
      ],
      "name": "listForSale",
      "outputs": [],
      "stateMutability": "nonpayable",
      "type": "function"
    },
    {
      "inputs": [
        {
          "internalType": "uint256",
          "name": "",
          "type": "uint256"
        }
      ],
      "name": "listings",
      "outputs": [
        {
          "internalType": "address",
          "name": "seller",
          "type": "address"
        },
        {
          "internalType": "uint256",
          "name": "price",
          "type": "uint256"
        },
        {
          "internalType": "bool",
          "name": "isForSale",
          "type": "bool"
        }
      ],
      "stateMutability": "view",
      "type": "function"
    },
    {
      "inputs": [
        {
          "internalType": "address",
          "name": "to",
          "type": "address"
        }
      ],
      "name": "mint",
      "outputs": [],
      "stateMutability": "nonpayable",
      "type": "function"
    },
    {
      "inputs": [],
      "name": "name",
      "outputs": [
        {
          "internalType": "string",
          "name": "",
          "type": "string"
        }
      ],
      "stateMutability": "view",
      "type": "function"
    },
    {
      "inputs": [],
      "name": "nextTokenId",
      "outputs": [
        {
          "internalType": "uint256",
          "name": "",
          "type": "uint256"
        }
      ],
      "stateMutability": "view",
      "type": "function"
    },
    {
      "inputs": [],
      "name": "owner",
      "outputs": [
        {
          "internalType": "address",
          "name": "",
          "type": "address"
        }
      ],
      "stateMutability": "view",
      "type": "function"
    },
    {
      "inputs": [
        {
          "internalType": "uint256",
          "name": "tokenId",
          "type": "uint256"
        }
      ],
      "name": "ownerOf",
      "outputs": [
        {
          "internalType": "address",
          "name": "",
          "type": "address"
        }
      ],
      "stateMutability": "view",
      "type": "function"
    },
    {
      "inputs": [
        {
          "internalType": "uint256",
          "name": "tokenId",
          "type": "uint256"
        }
      ],
      "name": "removeListing",
      "outputs": [],
      "stateMutability": "nonpayable",
      "type": "function"
    },
    {
      "inputs": [
        {
          "internalType": "address",
          "name": "from",
          "type": "address"
        },
        {
          "internalType": "address",
          "name": "to",
          "type": "address"
        },
        {
          "internalType": "uint256",
          "name": "tokenId",
          "type": "uint256"
        }
      ],
      "name": "safeTransferFrom",
      "outputs": [],
      "stateMutability": "nonpayable",
      "type": "function"
    },
    {
      "inputs": [
        {
          "internalType": "address",
          "name": "from",
          "type": "address"
        },
        {
          "internalType": "address",
          "name": "to",
          "type": "address"
        },
        {
          "internalType": "uint256",
          "name": "tokenId",
          "type": "uint256"
        },
        {
          "internalType": "bytes",
          "name": "data",
          "type": "bytes"
        }
      ],
      "name": "safeTransferFrom",
      "outputs": [],
      "stateMutability": "nonpayable",
      "type": "function"
    },
    {
      "inputs": [
        {
          "internalType": "address",
          "name": "operator",
          "type": "address"
        },
        {
          "internalType": "bool",
          "name": "approved",
          "type": "bool"
        }
      ],
      "name": "setApprovalForAll",
      "outputs": [],
      "stateMutability": "nonpayable",
      "type": "function"
    },
    {
      "inputs": [
        {
          "internalType": "bytes4",
          "name": "interfaceId",
          "type": "bytes4"
        }
      ],
      "name": "supportsInterface",
      "outputs": [
        {
          "internalType": "bool",
          "name": "",
          "type": "bool"
        }
      ],
      "stateMutability": "view",
      "type": "function"
    },
    {
      "inputs": [],
      "name": "symbol",
      "outputs": [
        {
          "internalType": "string",
          "name": "",
          "type": "string"
        }
      ],
      "stateMutability": "view",
      "type": "function"
    },
    {
      "inputs": [
        {
          "internalType": "uint256",
          "name": "tokenId",
          "type": "uint256"
        }
      ],
      "name": "tokenURI",
      "outputs": [
        {
          "internalType": "string",
          "name": "",
          "type": "string"
        }
      ],
      "stateMutability": "view",
      "type": "function"
    },
    {
      "inputs": [
        {
          "internalType": "address",
          "name": "from",
          "type": "address"
        },
        {
          "internalType": "address",
          "name": "to",
          "type": "address"
        },
        {
          "internalType": "uint256",
          "name": "tokenId",
          "type": "uint256"
        }
      ],
      "name": "transferFrom",
      "outputs": [],
      "stateMutability": "nonpayable",
      "type": "function"
    },
    {
      "inputs": [
        {
          "internalType": "address",
          "name": "newOwner",
          "type": "address"
        }
      ],
      "name": "transferOwnership",
      "outputs": [],
      "stateMutability": "nonpayable",
      "type": "function"
    },
    {
      "inputs": [
        {
          "internalType": "uint256",
          "name": "tokenId",
          "type": "uint256"
        },
        {
          "internalType": "uint256",
          "name": "newPrice",
          "type": "uint256"
        }
      ],
      "name": "updatePrice",
      "outputs": [],
      "stateMutability": "nonpayable",
      "type": "function"
    },
    {
      "inputs": [],
      "name": "withdraw",
      "outputs": [],
      "stateMutability": "nonpayable",
      "type": "function"
    }
  ],
  "bytecode": "0x608060405234801561001057600080fd5b506040518060400160405280600e81526020017f4e46544d61726b6574706c6163650000000000000000000000000000000000008152506040518060400160405280600481526020017f4e46544d00000000000000000000000000000000000000000000000000000000815250816000908161008c919061033d565b50806001908161009c919061033d565b50505033600660006101000a81548173ffffffffffffffffffffffffffffffffffffffff021916908373ffffffffffffffffffffffffffffffffffffffff160217905550600160078190555061040f565b600081519050919050565b7f4e487b7100000000000000000000000000000000000000000000000000000000600052604160045260246000fd5b7f4e487b7100000000000000000000000000000000000000000000000000000000600052602260045260246000fd5b6000600282049050600182168061016e57607f821691505b60208210810361018157610180610127565b5b50919050565b60008190508160005260206000209050919050565b60006020601f8301049050919050565b600082821b905092915050565b6000600883026101e97fffffffffffffffffffffffffffffffffffffffffffffffffffffffffffffffff826101ac565b6101f386836101ac565b95508019841693508086168417925050509392505050565b6000819050919050565b6000819050919050565b600061023a6102356102308461020b565b610215565b61020b565b9050919050565b6000819050919050565b6102548361021f565b61026861026082610241565b8484546101b9565b825550505050565b600090565b61027d610270565b61028881848461024b565b505050565b5b818110156102ac576102a1600082610275565b60018101905061028e565b5050565b601f8211156102f1576102c281610187565b6102cb8461019c565b810160208510156102da578190505b6102ee6102e68561019c565b83018261028d565b50505b505050565b600082821c905092915050565b6000610314600019846008026102f6565b1980831691505092915050565b600061032d8383610303565b9150826002028217905092915050565b610346826100ed565b67ffffffffffffffff81111561035f5761035e6100f8565b5b6103698254610156565b6103748282856102b0565b600060209050601f8311600181146103a75760008415610395578287015190505b61039f8582610321565b865550610407565b601f1984166103b586610187565b60005b828110156103dd578489015182556001820191506020850194506020810190506103b8565b868310156103fa57848901516103f6601f891682610303565b8355505b6001600288020188555050505b505050505050565b612f388061041e6000396000f3fe6080604052600436106101405760003560e01c806375794a3c116100b6578063c87b56dd1161006f578063c87b56dd14610444578063d96a094a14610481578063de74e57b1461049d578063e80d7fec146104dc578063e985e9c514610505578063f2fde38b1461054257610140565b806375794a3c1461034857806382367b2d146103735780638da5cb5b1461039c57806395d89b41146103c7578063a22cb465146103f2578063b88d4fde1461041b57610140565b80633ccfd60b116101085780633ccfd60b1461023c57806342842e0e14610253578063479ad4c31461027c5780636352211e146102a55780636a627842146102e257806370a082311461030b57610140565b806301ffc9a71461014557806306fdde0314610182578063081812fc146101ad578063095ea7b3146101ea57806323b872dd14610213575b600080fd5b34801561015157600080fd5b5061016c60048036038101906101679190612334565b61056b565b604051610179919061237c565b60405180910390f35b34801561018e57600080fd5b5061019761064d565b6040516101a49190612427565b60405180910390f35b3480156101b957600080fd5b506101d460048036038101906101cf919061247f565b6106df565b6040516101e191906124ed565b60405180910390f35b3480156101f657600080fd5b50610211600480360381019061020c9190612534565b6106fb565b005b34801561021f57600080fd5b5061023a60048036038101906102359190612574565b610711565b005b34801561024857600080fd5b50610251610813565b005b34801561025f57600080fd5b5061027a60048036038101906102759190612574565b61090e565b005b34801561028857600080fd5b506102a3600480360381019061029e919061247f565b61092e565b005b3480156102b157600080fd5b506102cc60048036038101906102c7919061247f565b610a63565b6040516102d991906124ed565b60405180910390f35b3480156102ee57600080fd5b50610309600480360381019061030491906125c7565b610a75565b005b34801561031757600080fd5b50610332600480360381019061032d91906125c7565b610b32565b60405161033f9190612603565b60405180910390f35b34801561035457600080fd5b5061035d610bec565b60405161036a9190612603565b60405180910390f35b34801561037f57600080fd5b5061039a6004803603810190610395919061261e565b610bf2565b005b3480156103a857600080fd5b506103b1610d2d565b6040516103be91906124ed565b60405180910390f35b3480156103d357600080fd5b506103dc610d57565b6040516103e99190612427565b60405180910390f35b3480156103fe57600080fd5b506104196004803603810190610414919061268a565b610de9565b005b34801561042757600080fd5b50610442600480360381019061043d91906127ff565b610dff565b005b34801561045057600080fd5b5061046b6004803603810190610466919061247f565b610e1c565b6040516104789190612427565b60405180910390f35b61049b6004803603810190610496919061247f565b610e85565b005b3480156104a957600080fd5b506104c460048036038101906104bf919061247f565b61103a565b6040516104d393929190612882565b60405180910390f35b3480156104e857600080fd5b5061050360048036038101906104fe919061261e565b611091565b005b34801561051157600080fd5b5061052c600480360381019061052791906128b9565b611209565b604051610539919061237c565b60405180910390f35b34801561054e57600080fd5b50610569600480360381019061056491906125c7565b61129d565b005b60007f80ac58cd000000000000000000000000000000000000000000000000000000007bffffffffffffffffffffffffffffffffffffffffffffffffffffffff1916827bffffffffffffffffffffffffffffffffffffffffffffffffffffffff1916148061063657507f5b5e139f000000000000000000000000000000000000000000000000000000007bffffffffffffffffffffffffffffffffffffffffffffffffffffffff1916827bffffffffffffffffffffffffffffffffffffffffffffffffffffffff1916145b806106465750610645826113e0565b5b9050919050565b60606000805461065c90612928565b80601f016020809104026020016040519081016040528092919081815260200182805461068890612928565b80156106d55780601f106106aa576101008083540402835291602001916106d5565b820191906000526020600020905b8154815290600101906020018083116106b857829003601f168201915b5050505050905090565b60006106ea8261144a565b506106f4826114d2565b9050919050565b61070d828261070861150f565b611517565b5050565b600073ffffffffffffffffffffffffffffffffffffffff168273ffffffffffffffffffffffffffffffffffffffff16036107835760006040517f64a0ae9200000000000000000000000000000000000000000000000000000000815260040161077a91906124ed565b60405180910390fd5b6000610797838361079261150f565b611529565b90508373ffffffffffffffffffffffffffffffffffffffff168173ffffffffffffffffffffffffffffffffffffffff161461080d578382826040517f64283d7b00000000000000000000000000000000000000000000000000000000815260040161080493929190612959565b60405180910390fd5b50505050565b600660009054906101000a900473ffffffffffffffffffffffffffffffffffffffff1673ffffffffffffffffffffffffffffffffffffffff163373ffffffffffffffffffffffffffffffffffffffff16146108a3576040517f08c379a000000000000000000000000000000000000000000000000000000000815260040161089a906129dc565b60405180910390fd5b600660009054906101000a900473ffffffffffffffffffffffffffffffffffffffff1673ffffffffffffffffffffffffffffffffffffffff166108fc479081150290604051600060405180830381858888f1935050505015801561090b573d6000803e3d6000fd5b50565b61092983838360405180602001604052806000815250610dff565b505050565b3373ffffffffffffffffffffffffffffffffffffffff1661094e82610a63565b73ffffffffffffffffffffffffffffffffffffffff16146109a4576040517f08c379a000000000000000000000000000000000000000000000000000000000815260040161099b90612a48565b60405180910390fd5b6008600082815260200190815260200160002060020160009054906101000a900460ff16610a07576040517f08c379a00000000000000000000000000000000000000000000000000000000081526004016109fe90612ab4565b60405180910390fd5b60086000828152602001908152602001600020600080820160006101000a81549073ffffffffffffffffffffffffffffffffffffffff021916905560018201600090556002820160006101000a81549060ff0219169055505050565b6000610a6e8261144a565b9050919050565b600660009054906101000a900473ffffffffffffffffffffffffffffffffffffffff1673ffffffffffffffffffffffffffffffffffffffff163373ffffffffffffffffffffffffffffffffffffffff1614610b05576040517f08c379a0000000000000000000000000000000000000000000000000000000008152600401610afc906129dc565b60405180910390fd5b6000600754905060076000815480929190610b1f90612b03565b9190505550610b2e8282611743565b5050565b60008073ffffffffffffffffffffffffffffffffffffffff168273ffffffffffffffffffffffffffffffffffffffff1603610ba55760006040517f89c62b64000000000000000000000000000000000000000000000000000000008152600401610b9c91906124ed565b60405180910390fd5b600360008373ffffffffffffffffffffffffffffffffffffffff1673ffffffffffffffffffffffffffffffffffffffff168152602001908152602001600020549050919050565b60075481565b3373ffffffffffffffffffffffffffffffffffffffff16610c1283610a63565b73ffffffffffffffffffffffffffffffffffffffff1614610c68576040517f08c379a0000000000000000000000000000000000000000000000000000000008152600401610c5f90612a48565b60405180910390fd5b6008600083815260200190815260200160002060020160009054906101000a900460ff16610ccb576040517f08c379a0000000000000000000000000000000000000000000000000000000008152600401610cc290612b97565b60405180910390fd5b60008111610d0e576040517f08c379a0000000000000000000000000000000000000000000000000000000008152600401610d0590612c03565b60405180910390fd5b8060086000848152602001908152602001600020600101819055505050565b6000600660009054906101000a900473ffffffffffffffffffffffffffffffffffffffff16905090565b606060018054610d6690612928565b80601f0160208091040260200160405190810160405280929190818152602001828054610d9290612928565b8015610ddf5780601f10610db457610100808354040283529160200191610ddf565b820191906000526020600020905b815481529060010190602001808311610dc257829003601f168201915b5050505050905090565b610dfb610df461150f565b8383611761565b5050565b610e0a848484610711565b610e16848484846118d0565b50505050565b6060610e278261144a565b506000610e32611a87565b90506000815111610e525760405180602001604052806000815250610e7d565b80610e5c84611a9e565b604051602001610e6d929190612c5f565b6040516020818303038152906040525b915050919050565b6000600860008381526020019081526020016000206040518060600160405290816000820160009054906101000a900473ffffffffffffffffffffffffffffffffffffffff1673ffffffffffffffffffffffffffffffffffffffff1673ffffffffffffffffffffffffffffffffffffffff168152602001600182015481526020016002820160009054906101000a900460ff16151515158152505090508060400151610f66576040517f08c379a0000000000000000000000000000000000000000000000000000000008152600401610f5d90612ccf565b60405180910390fd5b8060200151341015610fad576040517f08c379a0000000000000000000000000000000000000000000000000000000008152600401610fa490612d3b565b60405180910390fd5b610fbc81600001513384611b6c565b60006008600084815260200190815260200160002060020160006101000a81548160ff021916908315150217905550806000015173ffffffffffffffffffffffffffffffffffffffff166108fc349081150290604051600060405180830381858888f19350505050158015611035573d6000803e3d6000fd5b505050565b60086020528060005260406000206000915090508060000160009054906101000a900473ffffffffffffffffffffffffffffffffffffffff16908060010154908060020160009054906101000a900460ff16905083565b3373ffffffffffffffffffffffffffffffffffffffff166110b183610a63565b73ffffffffffffffffffffffffffffffffffffffff1614611107576040517f08c379a00000000000000000000000000000000000000000000000000000000081526004016110fe90612a48565b60405180910390fd5b6000811161114a576040517f08c379a000000000000000000000000000000000000000000000000000000000815260040161114190612c03565b60405180910390fd5b60405180606001604052803373ffffffffffffffffffffffffffffffffffffffff168152602001828152602001600115158152506008600084815260200190815260200160002060008201518160000160006101000a81548173ffffffffffffffffffffffffffffffffffffffff021916908373ffffffffffffffffffffffffffffffffffffffff1602179055506020820151816001015560408201518160020160006101000a81548160ff0219169083151502179055509050505050565b6000600560008473ffffffffffffffffffffffffffffffffffffffff1673ffffffffffffffffffffffffffffffffffffffff16815260200190815260200160002060008373ffffffffffffffffffffffffffffffffffffffff1673ffffffffffffffffffffffffffffffffffffffff16815260200190815260200160002060009054906101000a900460ff16905092915050565b600660009054906101000a900473ffffffffffffffffffffffffffffffffffffffff1673ffffffffffffffffffffffffffffffffffffffff163373ffffffffffffffffffffffffffffffffffffffff161461132d576040517f08c379a0000000000000000000000000000000000000000000000000000000008152600401611324906129dc565b60405180910390fd5b600073ffffffffffffffffffffffffffffffffffffffff168173ffffffffffffffffffffffffffffffffffffffff160361139c576040517f08c379a000000000000000000000000000000000000000000000000000000000815260040161139390612da7565b60405180910390fd5b80600660006101000a81548173ffffffffffffffffffffffffffffffffffffffff021916908373ffffffffffffffffffffffffffffffffffffffff16021790555050565b60007f01ffc9a7000000000000000000000000000000000000000000000000000000007bffffffffffffffffffffffffffffffffffffffffffffffffffffffff1916827bffffffffffffffffffffffffffffffffffffffffffffffffffffffff1916149050919050565b60008061145683611cd9565b9050600073ffffffffffffffffffffffffffffffffffffffff168173ffffffffffffffffffffffffffffffffffffffff16036114c957826040517f7e2732890000000000000000000000000000000000000000000000000000000081526004016114c09190612603565b60405180910390fd5b80915050919050565b60006004600083815260200190815260200160002060009054906101000a900473ffffffffffffffffffffffffffffffffffffffff169050919050565b600033905090565b6115248383836001611d16565b505050565b60008061153584611cd9565b9050600073ffffffffffffffffffffffffffffffffffffffff168373ffffffffffffffffffffffffffffffffffffffff161461157757611576818486611edb565b5b600073ffffffffffffffffffffffffffffffffffffffff168173ffffffffffffffffffffffffffffffffffffffff1614611608576115b9600085600080611d16565b6001600360008373ffffffffffffffffffffffffffffffffffffffff1673ffffffffffffffffffffffffffffffffffffffff168152602001908152602001600020600082825403925050819055505b600073ffffffffffffffffffffffffffffffffffffffff168573ffffffffffffffffffffffffffffffffffffffff161461168b576001600360008773ffffffffffffffffffffffffffffffffffffffff1673ffffffffffffffffffffffffffffffffffffffff168152602001908152602001600020600082825401925050819055505b846002600086815260200190815260200160002060006101000a81548173ffffffffffffffffffffffffffffffffffffffff021916908373ffffffffffffffffffffffffffffffffffffffff160217905550838573ffffffffffffffffffffffffffffffffffffffff168273ffffffffffffffffffffffffffffffffffffffff167fddf252ad1be2c89b69c2b068fc378daa952ba7f163c4a11628f55a4df523b3ef60405160405180910390a4809150509392505050565b61175d828260405180602001604052806000815250611f9f565b5050565b600073ffffffffffffffffffffffffffffffffffffffff168273ffffffffffffffffffffffffffffffffffffffff16036117d257816040517f5b08ba180000000000000000000000000000000000000000000000000000000081526004016117c991906124ed565b60405180910390fd5b80600560008573ffffffffffffffffffffffffffffffffffffffff1673ffffffffffffffffffffffffffffffffffffffff16815260200190815260200160002060008473ffffffffffffffffffffffffffffffffffffffff1673ffffffffffffffffffffffffffffffffffffffff16815260200190815260200160002060006101000a81548160ff0219169083151502179055508173ffffffffffffffffffffffffffffffffffffffff168373ffffffffffffffffffffffffffffffffffffffff167f17307eab39ab6107e8899845ad3d59bd9653f200f220920489ca2b5937696c31836040516118c3919061237c565b60405180910390a3505050565b60008373ffffffffffffffffffffffffffffffffffffffff163b1115611a81578273ffffffffffffffffffffffffffffffffffffffff1663150b7a0261191461150f565b8685856040518563ffffffff1660e01b81526004016119369493929190612e1c565b6020604051808303816000875af192505050801561197257506040513d601f19601f8201168201806040525081019061196f9190612e7d565b60015b6119f6573d80600081146119a2576040519150601f19603f3d011682016040523d82523d6000602084013e6119a7565b606091505b5060008151036119ee57836040517f64a0ae920000000000000000000000000000000000000000000000000000000081526004016119e591906124ed565b60405180910390fd5b805181602001fd5b63150b7a0260e01b7bffffffffffffffffffffffffffffffffffffffffffffffffffffffff1916817bffffffffffffffffffffffffffffffffffffffffffffffffffffffff191614611a7f57836040517f64a0ae92000000000000000000000000000000000000000000000000000000008152600401611a7691906124ed565b60405180910390fd5b505b50505050565b606060405180602001604052806000815250905090565b606060006001611aad84611fbb565b01905060008167ffffffffffffffff811115611acc57611acb6126d4565b5b6040519080825280601f01601f191660200182016040528015611afe5781602001600182028036833780820191505090505b509050600082602001820190505b600115611b61578080600190039150507f3031323334353637383961626364656600000000000000000000000000000000600a86061a8153600a8581611b5557611b54612eaa565b5b04945060008503611b0c575b819350505050919050565b600073ffffffffffffffffffffffffffffffffffffffff168273ffffffffffffffffffffffffffffffffffffffff1603611bde5760006040517f64a0ae92000000000000000000000000000000000000000000000000000000008152600401611bd591906124ed565b60405180910390fd5b6000611bec83836000611529565b9050600073ffffffffffffffffffffffffffffffffffffffff168173ffffffffffffffffffffffffffffffffffffffff1603611c5f57816040517f7e273289000000000000000000000000000000000000000000000000000000008152600401611c569190612603565b60405180910390fd5b8373ffffffffffffffffffffffffffffffffffffffff168173ffffffffffffffffffffffffffffffffffffffff1614611cd3578382826040517f64283d7b000000000000000000000000000000000000000000000000000000008152600401611cca93929190612959565b60405180910390fd5b50505050565b60006002600083815260200190815260200160002060009054906101000a900473ffffffffffffffffffffffffffffffffffffffff169050919050565b8080611d4f5750600073ffffffffffffffffffffffffffffffffffffffff168273ffffffffffffffffffffffffffffffffffffffff1614155b15611e83576000611d5f8461144a565b9050600073ffffffffffffffffffffffffffffffffffffffff168373ffffffffffffffffffffffffffffffffffffffff1614158015611dca57508273ffffffffffffffffffffffffffffffffffffffff168173ffffffffffffffffffffffffffffffffffffffff1614155b8015611ddd5750611ddb8184611209565b155b15611e1f57826040517fa9fbf51f000000000000000000000000000000000000000000000000000000008152600401611e1691906124ed565b60405180910390fd5b8115611e8157838573ffffffffffffffffffffffffffffffffffffffff168273ffffffffffffffffffffffffffffffffffffffff167f8c5be1e5ebec7d5bd14f71427d1e84f3dd0314c0f7b2291e5b200ac8c7c3b92560405160405180910390a45b505b836004600085815260200190815260200160002060006101000a81548173ffffffffffffffffffffffffffffffffffffffff021916908373ffffffffffffffffffffffffffffffffffffffff16021790555050505050565b611ee683838361210e565b611f9a57600073ffffffffffffffffffffffffffffffffffffffff168373ffffffffffffffffffffffffffffffffffffffff1603611f5b57806040517f7e273289000000000000000000000000000000000000000000000000000000008152600401611f529190612603565b60405180910390fd5b81816040517f177e802f000000000000000000000000000000000000000000000000000000008152600401611f91929190612ed9565b60405180910390fd5b505050565b611fa983836121cf565b611fb660008484846118d0565b505050565b600080600090507a184f03e93ff9f4daa797ed6e38ed64bf6a1f0100000000000000008310612019577a184f03e93ff9f4daa797ed6e38ed64bf6a1f010000000000000000838161200f5761200e612eaa565b5b0492506040810190505b6d04ee2d6d415b85acef81000000008310612056576d04ee2d6d415b85acef8100000000838161204c5761204b612eaa565b5b0492506020810190505b662386f26fc10000831061208557662386f26fc10000838161207b5761207a612eaa565b5b0492506010810190505b6305f5e10083106120ae576305f5e10083816120a4576120a3612eaa565b5b0492506008810190505b61271083106120d35761271083816120c9576120c8612eaa565b5b0492506004810190505b606483106120f657606483816120ec576120eb612eaa565b5b0492506002810190505b600a8310612105576001810190505b80915050919050565b60008073ffffffffffffffffffffffffffffffffffffffff168373ffffffffffffffffffffffffffffffffffffffff16141580156121c657508273ffffffffffffffffffffffffffffffffffffffff168473ffffffffffffffffffffffffffffffffffffffff16148061218757506121868484611209565b5b806121c557508273ffffffffffffffffffffffffffffffffffffffff166121ad836114d2565b73ffffffffffffffffffffffffffffffffffffffff16145b5b90509392505050565b600073ffffffffffffffffffffffffffffffffffffffff168273ffffffffffffffffffffffffffffffffffffffff16036122415760006040517f64a0ae9200000000000000000000000000000000000000000000000000000000815260040161223891906124ed565b60405180910390fd5b600061224f83836000611529565b9050600073ffffffffffffffffffffffffffffffffffffffff168173ffffffffffffffffffffffffffffffffffffffff16146122c35760006040517f73c6ac6e0000000000000000000000000000000000000000000000000000000081526004016122ba91906124ed565b60405180910390fd5b505050565b6000604051905090565b600080fd5b600080fd5b60007fffffffff0000000000000000000000000000000000000000000000000000000082169050919050565b612311816122dc565b811461231c57600080fd5b50565b60008135905061232e81612308565b92915050565b60006020828403121561234a576123496122d2565b5b60006123588482850161231f565b91505092915050565b60008115159050919050565b61237681612361565b82525050565b6000602082019050612391600083018461236d565b92915050565b600081519050919050565b600082825260208201905092915050565b60005b838110156123d15780820151818401526020810190506123b6565b60008484015250505050565b6000601f19601f8301169050919050565b60006123f982612397565b61240381856123a2565b93506124138185602086016123b3565b61241c816123dd565b840191505092915050565b6000602082019050818103600083015261244181846123ee565b905092915050565b6000819050919050565b61245c81612449565b811461246757600080fd5b50565b60008135905061247981612453565b92915050565b600060208284031215612495576124946122d2565b5b60006124a38482850161246a565b91505092915050565b600073ffffffffffffffffffffffffffffffffffffffff82169050919050565b60006124d7826124ac565b9050919050565b6124e7816124cc565b82525050565b600060208201905061250260008301846124de565b92915050565b612511816124cc565b811461251c57600080fd5b50565b60008135905061252e81612508565b92915050565b6000806040838503121561254b5761254a6122d2565b5b60006125598582860161251f565b925050602061256a8582860161246a565b9150509250929050565b60008060006060848603121561258d5761258c6122d2565b5b600061259b8682870161251f565b93505060206125ac8682870161251f565b92505060406125bd8682870161246a565b9150509250925092565b6000602082840312156125dd576125dc6122d2565b5b60006125eb8482850161251f565b91505092915050565b6125fd81612449565b82525050565b600060208201905061261860008301846125f4565b92915050565b60008060408385031215612635576126346122d2565b5b60006126438582860161246a565b92505060206126548582860161246a565b9150509250929050565b61266781612361565b811461267257600080fd5b50565b6000813590506126848161265e565b92915050565b600080604083850312156126a1576126a06122d2565b5b60006126af8582860161251f565b92505060206126c085828601612675565b9150509250929050565b600080fd5b600080fd5b7f4e487b7100000000000000000000000000000000000000000000000000000000600052604160045260246000fd5b61270c826123dd565b810181811067ffffffffffffffff8211171561272b5761272a6126d4565b5b80604052505050565b600061273e6122c8565b905061274a8282612703565b919050565b600067ffffffffffffffff82111561276a576127696126d4565b5b612773826123dd565b9050602081019050919050565b82818337600083830152505050565b60006127a261279d8461274f565b612734565b9050828152602081018484840111156127be576127bd6126cf565b5b6127c9848285612780565b509392505050565b600082601f8301126127e6576127e56126ca565b5b81356127f684826020860161278f565b91505092915050565b60008060008060808587031215612819576128186122d2565b5b60006128278782880161251f565b94505060206128388782880161251f565b93505060406128498782880161246a565b925050606085013567ffffffffffffffff81111561286a576128696122d7565b5b612876878288016127d1565b91505092959194509250565b600060608201905061289760008301866124de565b6128a460208301856125f4565b6128b1604083018461236d565b949350505050565b600080604083850312156128d0576128cf6122d2565b5b60006128de8582860161251f565b92505060206128ef8582860161251f565b9150509250929050565b7f4e487b7100000000000000000000000000000000000000000000000000000000600052602260045260246000fd5b6000600282049050600182168061294057607f821691505b602082108103612953576129526128f9565b5b50919050565b600060608201905061296e60008301866124de565b61297b60208301856125f4565b61298860408301846124de565b949350505050565b7f43616c6c6572206973206e6f7420746865206f776e6572000000000000000000600082015250565b60006129c66017836123a2565b91506129d182612990565b602082019050919050565b600060208201905081810360008301526129f5816129b9565b9050919050565b7f4e6f742074686520746f6b656e206f776e657200000000000000000000000000600082015250565b6000612a326013836123a2565b9150612a3d826129fc565b602082019050919050565b60006020820190508181036000830152612a6181612a25565b9050919050565b7f546f6b656e206973206e6f74206c697374656420666f722073616c6500000000600082015250565b6000612a9e601c836123a2565b9150612aa982612a68565b602082019050919050565b60006020820190508181036000830152612acd81612a91565b9050919050565b7f4e487b7100000000000000000000000000000000000000000000000000000000600052601160045260246000fd5b6000612b0e82612449565b91507fffffffffffffffffffffffffffffffffffffffffffffffffffffffffffffffff8203612b4057612b3f612ad4565b5b600182019050919050565b7f546f6b656e206e6f74206c697374656420666f722073616c6500000000000000600082015250565b6000612b816019836123a2565b9150612b8c82612b4b565b602082019050919050565b60006020820190508181036000830152612bb081612b74565b9050919050565b7f5072696365206d7573742062652067726561746572207468616e203000000000600082015250565b6000612bed601c836123a2565b9150612bf882612bb7565b602082019050919050565b60006020820190508181036000830152612c1c81612be0565b9050919050565b600081905092915050565b6000612c3982612397565b612c438185612c23565b9350612c538185602086016123b3565b80840191505092915050565b6000612c6b8285612c2e565b9150612c778284612c2e565b91508190509392505050565b7f546f6b656e206e6f7420666f722073616c650000000000000000000000000000600082015250565b6000612cb96012836123a2565b9150612cc482612c83565b602082019050919050565b60006020820190508181036000830152612ce881612cac565b9050919050565b7f496e73756666696369656e742066756e64730000000000000000000000000000600082015250565b6000612d256012836123a2565b9150612d3082612cef565b602082019050919050565b60006020820190508181036000830152612d5481612d18565b9050919050565b7f4e6577206f776e657220697320746865207a65726f2061646472657373000000600082015250565b6000612d91601d836123a2565b9150612d9c82612d5b565b602082019050919050565b60006020820190508181036000830152612dc081612d84565b9050919050565b600081519050919050565b600082825260208201905092915050565b6000612dee82612dc7565b612df88185612dd2565b9350612e088185602086016123b3565b612e11816123dd565b840191505092915050565b6000608082019050612e3160008301876124de565b612e3e60208301866124de565b612e4b60408301856125f4565b8181036060830152612e5d8184612de3565b905095945050505050565b600081519050612e7781612308565b92915050565b600060208284031215612e9357612e926122d2565b5b6000612ea184828501612e68565b91505092915050565b7f4e487b7100000000000000000000000000000000000000000000000000000000600052601260045260246000fd5b6000604082019050612eee60008301856124de565b612efb60208301846125f4565b939250505056fea26469706673582212207a42ca293b8fe0e071c0b3c92240a01946e93215afa0a1bd5a35a6c5aa17fb9e64736f6c634300081a0033",
  "linkReferences": {},
  "deployedLinkReferences": {}
}